{"backend/contracts/TransactionMembershipVerifier.sol":{"TransactionMembershipVerifier":{"abi":[{"inputs":[{"internalType":"uint256[2]","name":"_pA","type":"uint256[2]"},{"internalType":"uint256[2][2]","name":"_pB","type":"uint256[2][2]"},{"internalType":"uint256[2]","name":"_pC","type":"uint256[2]"},{"internalType":"uint256[43]","name":"_pubSignals","type":"uint256[43]"}],"name":"verifyProof","outputs":[{"internalType":"bool","name":"","type":"bool"}],"stateMutability":"view","type":"function"}],"evm":{"bytecode":{"linkReferences":{},"object":"6080806040523461001657611f0f908161001c8239f35b600080fdfe6080604052600436101561001257600080fd5b6000803560e01c635547bd381461002857600080fd5b34610281576106603660031901126102815761004336610284565b3660c41161027d5761005436610296565b903661066411610279576020929161027591610400604052610078610104356102a4565b610084610124356102a4565b610090610144356102a4565b61009c610164356102a4565b6100a8610184356102a4565b6100b46101a4356102a4565b6100c06101c4356102a4565b6100cc6101e4356102a4565b6100d8610204356102a4565b6100e4610224356102a4565b6100f0610244356102a4565b6100fc610264356102a4565b610108610284356102a4565b6101146102a4356102a4565b6101206102c4356102a4565b61012c6102e4356102a4565b610138610304356102a4565b610144610324356102a4565b610150610344356102a4565b61015c610364356102a4565b610168610384356102a4565b6101746103a4356102a4565b6101806103c4356102a4565b61018c6103e4356102a4565b610198610404356102a4565b6101a4610424356102a4565b6101b0610444356102a4565b6101bc610464356102a4565b6101c8610484356102a4565b6101d46104a4356102a4565b6101e06104c4356102a4565b6101ec6104e4356102a4565b6101f8610504356102a4565b610204610524356102a4565b610210610544356102a4565b61021c610564356102a4565b610228610584356102a4565b6102346105a4356102a4565b6102406105c4356102a4565b61024c6105e4356102a4565b610258610604356102a4565b610264610624356102a4565b610270610644356102a4565b611a05565b8152f35b8280fd5b5080fd5b80fd5b9060049160441161029157565b600080fd5b9060c4916101041161029157565b7f30644e72e131a029b85045b68181585d2833e84879b9709143e1f593f000000111156102cd57565b6000805260206000f35b604051907f16a3d7b1c68ecdedcef3343aa40bbf5a019d266f83fd13ce6628ea2ce6fb0c1282527f1fa0da55a822e336329e89d8cbed7053246a6fa72260e4bbfcaeb7e64d43d00b6020830152604082019081526107cf196040836060816007855a01fa156102cd5760409260066080939284938451905260a05160608401525a01fa156102cd57565b604051907f24344bbb33e78a237b28c67ea540f34ed2070f6b3d1acb42bb3fa1d4d0bcb24182527f24627b50de0d66d1218768da1a5af0a4fa5e95a0c554b5349d8d1329b98c64226020830152604082019081526107cf196040836060816007855a01fa156102cd5760409260066080939284938451905260a05160608401525a01fa156102cd57565b604051907f1b3aea2cfa0d238d5b76e201739c96da0f40b7a4c5acb1be1f61cf7bd45405e682527f03fd005d7cdc908ad57ef52e534ffdedc86856ee033cba2474f8283a8c859bb06020830152604082019081526107cf196040836060816007855a01fa156102cd5760409260066080939284938451905260a05160608401525a01fa156102cd57565b604051907f258317b287df342edfd5ba81afd7a7ed900bba651dfd276bcdae64833e42719982527f229f8d1e49c7207ae4fc7cac35426980019e150eca7565f17c87dfb0f8b8689d6020830152604082019081526107cf196040836060816007855a01fa156102cd5760409260066080939284938451905260a05160608401525a01fa156102cd57565b604051907f1a9fc6ef3f2f6d47da459fddfd364c5c5b4a93d964c94f856b4e1e5d698e217e82527f0cc94619fbb94e1c235a43fff7ada9b6164a8de2aac120404a081ecfa9dad9ab6020830152604082019081526107cf196040836060816007855a01fa156102cd5760409260066080939284938451905260a05160608401525a01fa156102cd57565b604051907f15e86bd82110ffea40a2c4587b5c615a077f68970f6277c0a7d022e91776300282527f122f74469a8fd01fdf55ca4a61f13d4e47b93cb5d0112cdb165a7441731414216020830152604082019081526107cf196040836060816007855a01fa156102cd5760409260066080939284938451905260a05160608401525a01fa156102cd57565b604051907f25c5eb76afa0373a0d8ef959b3c41cf4d411126bc879d905e868efcdafb90e9c82527f1cf58814d028bbc585d82e9782420d2cf397500ca5b84bb47d8520c84c7e4b066020830152604082019081526107cf196040836060816007855a01fa156102cd5760409260066080939284938451905260a05160608401525a01fa156102cd57565b604051907f1e5efce63bfb8c482aa4be288ad5ec35654281911c88fffb538a90993bf4fad982527f258322f0f489199a79be06467b2a8ebbd07d62bc9a01b1ca4b38b3b18fefaf1f6020830152604082019081526107cf196040836060816007855a01fa156102cd5760409260066080939284938451905260a05160608401525a01fa156102cd57565b604051907f2d171a74a4676c830d6678c60d72115a879e5b00a9eea687ed281b3b6b3e7a6382527f2df53935230330e6c57ead4a45aecd8372bf2b36008e65d63bcdd4ef39a9b1ce6020830152604082019081526107cf196040836060816007855a01fa156102cd5760409260066080939284938451905260a05160608401525a01fa156102cd57565b604051907f2bd60ea59bfaf3fc36d89255366c477dc9714b1902ead3ad58c3d24ad96e9ae982527f1b2886d270971726e3622dd7f2d9e8e54bfb3cb9fc4c858dd9f6010edd4b2c326020830152604082019081526107cf196040836060816007855a01fa156102cd5760409260066080939284938451905260a05160608401525a01fa156102cd57565b604051907f04817af99912384942281f014f006fcaf9f725e43f7a1bfee8eb49f43b6b3bdf82527f10c69f1e3af64e4d25218ff59fbf41cfbd7eb4500038b8d798baf68defdd20096020830152604082019081526107cf196040836060816007855a01fa156102cd5760409260066080939284938451905260a05160608401525a01fa156102cd57565b604051907f0df60dae6a3e0caff0cc3432358222e374ce7adf4e1b7e7a361a7ba75fef0abc82527f01415348cd61176015a8777519b159b2bb05d0dd150778caa62377747c33acd86020830152604082019081526107cf196040836060816007855a01fa156102cd5760409260066080939284938451905260a05160608401525a01fa156102cd57565b604051907f1ea2ff49558ac0b1a1ee76513fcf969823e872480d4c76f362e46d067a7b58b682527f0e57b04bd7dd3e7d9d30fafa7f433bbdf7c040b4e5bf8c80ab0d9187b29abcd36020830152604082019081526107cf196040836060816007855a01fa156102cd5760409260066080939284938451905260a05160608401525a01fa156102cd57565b604051907f177fa4dbaccec6ed185795978e472c1c0fc89247e0e96a221cafdf53ea41177c82527f0806aa86e7f15200cc07e38aa6145fb844312b274c64741ddfddecf52d76eddb6020830152604082019081526107cf196040836060816007855a01fa156102cd5760409260066080939284938451905260a05160608401525a01fa156102cd57565b604051907f24bd032cdd2bba3f4f74559f38578f9ded7360ef496809d1cb85957ea46e4bb982527f22072a3dadf7e08cbceffeb9958c71502a3fc4ab1239c4ed97d01eead6709c776020830152604082019081526107cf196040836060816007855a01fa156102cd5760409260066080939284938451905260a05160608401525a01fa156102cd57565b604051907f2eee2f5b0653d86254a48dd3d05a15dcd4172e1e8b3b45e5ea1598c6295d1e1782527f10be71710df5bf02a122b7415c4cf7fc6887e70658fd9c2e670eb9cf518d26c66020830152604082019081526107cf196040836060816007855a01fa156102cd5760409260066080939284938451905260a05160608401525a01fa156102cd57565b604051907f06393bb4aebc97a79ba50ae1866ca356b1f41ef61d2971ee4f70161bf2b6174182527f2880e1de26d05cb982777747c988d68d91ecb6dfb6c6d024dddda0d1074736996020830152604082019081526107cf196040836060816007855a01fa156102cd5760409260066080939284938451905260a05160608401525a01fa156102cd57565b604051907f02990b7621783382eb83e9167a18b500cf68aed1b724bd56e8f979fb6f57ab0e82527f139c2e119d561018dcba8bc792e1f9eea8ae31077693a4e87ec5c964030526446020830152604082019081526107cf196040836060816007855a01fa156102cd5760409260066080939284938451905260a05160608401525a01fa156102cd57565b604051907f2857bb41c109a227e852518e5b8ac4e5437531e2d6b3080a355a84fcf02ea0a782527f0b9dd0a8e861f8127da957d526399649b2f37f4d0c52e711511ca76896b616c96020830152604082019081526107cf196040836060816007855a01fa156102cd5760409260066080939284938451905260a05160608401525a01fa156102cd57565b604051907f04653c5077824cac1c6df932855a381c2f0cd8cc3d9fcdf3db276d778fdc3fbc82527f0a56c264dfc2d19428914f82072ec381b349a8be7b299fc3730428cd0c051e366020830152604082019081526107cf196040836060816007855a01fa156102cd5760409260066080939284938451905260a05160608401525a01fa156102cd57565b604051907f24de1fbb84e5c199d9f8776b3383017fd98d94d6f6bd2bd2cc62697a92047abe82527f127ab929229ea59d805a3923656e4d4b108d99d7da201efbb6380cf44c6215776020830152604082019081526107cf196040836060816007855a01fa156102cd5760409260066080939284938451905260a05160608401525a01fa156102cd57565b604051907f0f8b83b6311f2c26a223d35b5fed588b34410ffce6afc8496b92cd7acf93261082527f1e1c9c532b11a528e7bb941340b52fc658fb34d61a836680960774433f6a334e6020830152604082019081526107cf196040836060816007855a01fa156102cd5760409260066080939284938451905260a05160608401525a01fa156102cd57565b604051907f1323493b51e5253732f1bd0a218297166c47acc8a3803da2c5361ef296eae35782527f158d3767e1dd9ec3eb974c8c77417c5728225941782210ca0e21e54397fb5e006020830152604082019081526107cf196040836060816007855a01fa156102cd5760409260066080939284938451905260a05160608401525a01fa156102cd57565b604051907f14d179a263d52cbddc61bb24e731038d485bfeb2319e2a08a3486243ed6238c282527f2b9b0010c107d511d31cc35eee6fd803a816e61095fe705b1845c8674cf8f52e6020830152604082019081526107cf196040836060816007855a01fa156102cd5760409260066080939284938451905260a05160608401525a01fa156102cd57565b604051907f1746c4547dbfd1b55af514506f3286e4517e4913d210831f9768bf65df9753f882527f03ef4f97c8e52d79365ccfba10d375251a05689f01736d91e04cb4e29407f0a06020830152604082019081526107cf196040836060816007855a01fa156102cd5760409260066080939284938451905260a05160608401525a01fa156102cd57565b604051907f160669f93e927924d60b0a0cb163a61292c55d1a716014ceab84cbde7ff2132182527f2f5ad946224a11c7339c37e79a985defb8e2e93731f9788e0ae7840d08dd27606020830152604082019081526107cf196040836060816007855a01fa156102cd5760409260066080939284938451905260a05160608401525a01fa156102cd57565b604051907f08bda41a91cd3ca42b3f807b29ef9aef3d9617cd9f83934a8154cc707776f0e782527f302e93a539a2af46ccfa87b30fd74c83e10cfef2090ffda423bab224a4a2494d6020830152604082019081526107cf196040836060816007855a01fa156102cd5760409260066080939284938451905260a05160608401525a01fa156102cd57565b604051907f1d7bea7e1a2cd69db6b3e35f875eff28b0dbf7b3af6eb046540431da55fcab9f82527f043b0049011324652f7ffb9fafaac1042888b05201a27fcfd85237ecad0629646020830152604082019081526107cf196040836060816007855a01fa156102cd5760409260066080939284938451905260a05160608401525a01fa156102cd57565b604051907f07fac8bfae3c56fb1561388bd63d837bea390842b197b911ccabc9444cf792cb82527f164aaf5533065f6c17ffa2604253e3b8e6237eff1cc7b52767a73667761e93786020830152604082019081526107cf196040836060816007855a01fa156102cd5760409260066080939284938451905260a05160608401525a01fa156102cd57565b604051907f1f8072d169a6ba4988ad1ea03723102138c7df150eceb07faa6de692ee6ec02d82527f0246eb79565097c400838cb84ce9bbfb51d1f1b7f55fa56a76c1cfe497992eaf6020830152604082019081526107cf196040836060816007855a01fa156102cd5760409260066080939284938451905260a05160608401525a01fa156102cd57565b604051907f12e6281ca360f53923860be59c1535c178467330235a5154b465015cfbfc1bbf82527f155974b9650b744e662c60f9dcd8e5d4ced3369da9dd607f6566711497b29ffb6020830152604082019081526107cf196040836060816007855a01fa156102cd5760409260066080939284938451905260a05160608401525a01fa156102cd57565b604051907f20bf6137985b5f7de1d89fb22cc214e78d748c1d78cf3d6149975d1e35bbd50682527f262873f4cb69288af391bafb7ac35893926f08f598e2f0fa233f60444a15060f6020830152604082019081526107cf196040836060816007855a01fa156102cd5760409260066080939284938451905260a05160608401525a01fa156102cd57565b604051907f01380cc25e4b92e00532b8fe6e7f5b0d4aa532e331d6c3aabba39b5ebc646c7182527f2cd829575111cc43426329fcb0f362d8892b7faca1e15109d1c35aab1e17eaeb6020830152604082019081526107cf196040836060816007855a01fa156102cd5760409260066080939284938451905260a05160608401525a01fa156102cd57565b604051907f0fb132d34e6928545809fcd9b8062b61a9f89ec3159230139237c7cb99c5211782527f0e63befaabced78079f66920df34f4f8c34ac21f6af912867839f9bd1e8f157b6020830152604082019081526107cf196040836060816007855a01fa156102cd5760409260066080939284938451905260a05160608401525a01fa156102cd57565b604051907f2285d2740d66131c133c40f35a595c9fedff2787d1f229baf27ffe3380370c3982527f1fcf5907985143d2cfbd19e3048c18196be2c20cd7ef6f24df05e9942deaeef36020830152604082019081526107cf196040836060816007855a01fa156102cd5760409260066080939284938451905260a05160608401525a01fa156102cd57565b604051907f09ed75bc17608cd0098710b27981fffb31019c22d57d7924fe404609df19f52682527f047e08f7f7cf70b49d40de96026ab8eb396d2a41ef11d1a5b2238f732e0a2df56020830152604082019081526107cf196040836060816007855a01fa156102cd5760409260066080939284938451905260a05160608401525a01fa156102cd57565b604051907f1c3533c3f72a4d78731d81a5cb6455cae8d2021bed2ad80f3c28b7d4353c03f682527f1a4d7417bd7d61392687ff9d8ad618035a21da91c6a157a8a17e07020648492b6020830152604082019081526107cf196040836060816007855a01fa156102cd5760409260066080939284938451905260a05160608401525a01fa156102cd57565b604051907f0bde8d98902dc03983478ff8a37ebb827ac761763a15120f1963153e18685be482527f22dca53f7b9239b39348ccae651a0b70c20e51894aec187ba052eca1726597706020830152604082019081526107cf196040836060816007855a01fa156102cd5760409260066080939284938451905260a05160608401525a01fa156102cd57565b604051907f21d07da668493d93c88357d0cc33bbcecc1fa162bef4ce42013ba87251697dc382527f1acce207c200c98c574c94c419aa0b697985549ee10a0fcc02085ac9d87e6bf06020830152604082019081526107cf196040836060816007855a01fa156102cd5760409260066080939284938451905260a05160608401525a01fa156102cd57565b604051907f0c083382916112e05d5554143bfc6427f1ed8afa1c50ee899246a86fcdcb066682527f0fa0bcdafcca84568e1230b4ddc46b620d2a77f51e833d241f216c7f108d49776020830152604082019081526107cf196040836060816007855a01fa156102cd5760409260066080939284938451905260a05160608401525a01fa156102cd57565b604051907f2d58343e76813062ae2586b43335a9af4587e9c39c3addb8e62245950ec23dcb82527f0b9504a72369b77f7154f702f3e1c13d43f9b5df24b686801d6f788bf4c5f2b56020830152604082019081526107cf196040836060816007855a01fa156102cd5760409260066080939284938451905260a05160608401525a01fa156102cd57565b604051907f2281c304d7c6e6d22ab92e108796f1e0e0b3fae29ec6c2fb1ebc8a9bb3bf23b582527f0534faf20e6378155163d2585447e269b6825e4751f66da86826a3f5c0a579296020830152604082019081526107cf196040836060816007855a01fa156102cd5760409260066080939284938451905260a05160608401525a01fa156102cd57565b604051907f28dd29889fa21011f1ab2581d9d609cc525cd876e8ed8ff2bf94c27f1918272d82527f27881c9877fa5e2642b5cbac53c591478f93221c6a9919c4bbe1a468468c14a46020830152604082019081526107cf196040836060816007855a01fa156102cd5760409260066080939284938451905260a05160608401525a01fa156102cd57565b6020907f084500af25d9f069a25409d061dd2e5c9aeaf07864a823821f8ef69d93f1db5e6080527f1f0ed224973cb49da8efe47eae170b60d8a31322ba65e9d88843a1d007224d1460a052611a5c610104356102d7565b611a6861012435610361565b611a74610144356103eb565b611a8061016435610475565b611a8c610184356104ff565b611a986101a435610589565b611aa46101c435610613565b611ab06101e43561069d565b611abc61020435610727565b611ac8610224356107b1565b611ad46102443561083b565b611ae0610264356108c5565b611aec6102843561094f565b611af86102a4356109d9565b611b046102c435610a63565b611b106102e435610aed565b611b1c61030435610b77565b611b2861032435610c01565b611b3461034435610c8b565b611b4061036435610d15565b611b4c61038435610d9f565b611b586103a435610e29565b611b646103c435610eb3565b611b706103e435610f3d565b611b7c61040435610fc7565b611b8861042435611051565b611b94610444356110db565b611ba061046435611165565b611bac610484356111ef565b611bb86104a435611279565b611bc46104c435611303565b611bd06104e43561138d565b611bdc61050435611417565b611be8610524356114a1565b611bf46105443561152b565b611c00610564356115b5565b611c0c6105843561163f565b611c186105a4356116c9565b611c246105c435611753565b611c306105e4356117dd565b611c3c61060435611867565b611c48610624356118f1565b611c546106443561197b565b61010092818492358352837f30644e72e131a029b85045b68181585d97816a916871ca8d3c208c16d87cfd479101358103066101205260443561014052606435610160526084356101805260a4356101a0527f0df8c8d0ee78c320f78505c326f2daad5396b2b970888ffff4b6ba24eba25d3b6101c0527f045186d313fbe0b78ef12a0da0ba0a9acc5c86fec553827dd8b9ae9ad137c14e6101e0527f2cff275d7472b1d88a9a99479457e409ad26c0acf7b442a66290dd9919a293bd610200527f085832893ca6b9cfca1312a14bec6119a8067340e129d181d32a6d369415c800610220527f28dd32fb648c2a82b219a38cf038ef57503fdf03b91f8378ad53d9644ad8d5a6610240527f140cdfb185c8a4881b0e66ce6235b519013c341d9a75500befcd32e3ead72bf3610260526080516102805260a0516102a0527f198e9393920d483a7260bfb731fb5d25f1aa493335a9e71297e485b7aef312c26102c0527f1800deef121f1e76426a00665e5c4479674322d4f75edadd46debd5cd992f6ed6102e05282610300917f090689d0585ff075ec9e99ad690c3395bc4b313370b38ef355acdadcd122975b83527f12c85ea5db8c6deb4aab71808dcb408fe3d1e7690c43d37b4ce6cc0166fa7daa610320528035610340520135610360527f1de32d6b8ac92f0aee3e57657de0920233300c926e9b149114ff45f1a5377223610380527f14e6a8f899afe5bfd6ab54b1377a3a2e69d371f9ac40fe7295f7c70d0cadeacf6103a0527f0b19bbaba17f5b7f4a4efdcec05deb972e542225e6b0d22d7396f91d5b80a31d6103c0527f2d53848bf5801a19ae6d30ce4c550f0c18c0f259b8b8e18904da98a20bfbed666103e0528160086107cf195a01fa9051169056fea26469706673582212200673e4b79ab3a0939a1f0f67ad63f7f7a5544ec0f012f5d1371e713f9a064e6364736f6c63430008180033","opcodes":"PUSH1 0x80 DUP1 PUSH1 0x40 MSTORE CALLVALUE PUSH2 0x16 JUMPI PUSH2 0x1F0F SWAP1 DUP2 PUSH2 0x1C DUP3 CODECOPY RETURN JUMPDEST PUSH1 0x0 DUP1 REVERT INVALID PUSH1 0x80 PUSH1 0x40 MSTORE PUSH1 0x4 CALLDATASIZE LT ISZERO PUSH2 0x12 JUMPI PUSH1 0x0 DUP1 REVERT JUMPDEST PUSH1 0x0 DUP1 CALLDATALOAD PUSH1 0xE0 SHR PUSH4 0x5547BD38 EQ PUSH2 0x28 JUMPI PUSH1 0x0 DUP1 REVERT JUMPDEST CALLVALUE PUSH2 0x281 JUMPI PUSH2 0x660 CALLDATASIZE PUSH1 0x3 NOT ADD SLT PUSH2 0x281 JUMPI PUSH2 0x43 CALLDATASIZE PUSH2 0x284 JUMP JUMPDEST CALLDATASIZE PUSH1 0xC4 GT PUSH2 0x27D JUMPI PUSH2 0x54 CALLDATASIZE PUSH2 0x296 JUMP JUMPDEST SWAP1 CALLDATASIZE PUSH2 0x664 GT PUSH2 0x279 JUMPI PUSH1 0x20 SWAP3 SWAP2 PUSH2 0x275 SWAP2 PUSH2 0x400 PUSH1 0x40 MSTORE PUSH2 0x78 PUSH2 0x104 CALLDATALOAD PUSH2 0x2A4 JUMP JUMPDEST PUSH2 0x84 PUSH2 0x124 CALLDATALOAD PUSH2 0x2A4 JUMP JUMPDEST PUSH2 0x90 PUSH2 0x144 CALLDATALOAD PUSH2 0x2A4 JUMP JUMPDEST PUSH2 0x9C PUSH2 0x164 CALLDATALOAD PUSH2 0x2A4 JUMP JUMPDEST PUSH2 0xA8 PUSH2 0x184 CALLDATALOAD PUSH2 0x2A4 JUMP JUMPDEST PUSH2 0xB4 PUSH2 0x1A4 CALLDATALOAD PUSH2 0x2A4 JUMP JUMPDEST PUSH2 0xC0 PUSH2 0x1C4 CALLDATALOAD PUSH2 0x2A4 JUMP JUMPDEST PUSH2 0xCC PUSH2 0x1E4 CALLDATALOAD PUSH2 0x2A4 JUMP JUMPDEST PUSH2 0xD8 PUSH2 0x204 CALLDATALOAD PUSH2 0x2A4 JUMP JUMPDEST PUSH2 0xE4 PUSH2 0x224 CALLDATALOAD PUSH2 0x2A4 JUMP JUMPDEST PUSH2 0xF0 PUSH2 0x244 CALLDATALOAD PUSH2 0x2A4 JUMP JUMPDEST PUSH2 0xFC PUSH2 0x264 CALLDATALOAD PUSH2 0x2A4 JUMP JUMPDEST PUSH2 0x108 PUSH2 0x284 CALLDATALOAD PUSH2 0x2A4 JUMP JUMPDEST PUSH2 0x114 PUSH2 0x2A4 CALLDATALOAD PUSH2 0x2A4 JUMP JUMPDEST PUSH2 0x120 PUSH2 0x2C4 CALLDATALOAD PUSH2 0x2A4 JUMP JUMPDEST PUSH2 0x12C PUSH2 0x2E4 CALLDATALOAD PUSH2 0x2A4 JUMP JUMPDEST PUSH2 0x138 PUSH2 0x304 CALLDATALOAD PUSH2 0x2A4 JUMP JUMPDEST PUSH2 0x144 PUSH2 0x324 CALLDATALOAD PUSH2 0x2A4 JUMP JUMPDEST PUSH2 0x150 PUSH2 0x344 CALLDATALOAD PUSH2 0x2A4 JUMP JUMPDEST PUSH2 0x15C PUSH2 0x364 CALLDATALOAD PUSH2 0x2A4 JUMP JUMPDEST PUSH2 0x168 PUSH2 0x384 CALLDATALOAD PUSH2 0x2A4 JUMP JUMPDEST PUSH2 0x174 PUSH2 0x3A4 CALLDATALOAD PUSH2 0x2A4 JUMP JUMPDEST PUSH2 0x180 PUSH2 0x3C4 CALLDATALOAD PUSH2 0x2A4 JUMP JUMPDEST PUSH2 0x18C PUSH2 0x3E4 CALLDATALOAD PUSH2 0x2A4 JUMP JUMPDEST PUSH2 0x198 PUSH2 0x404 CALLDATALOAD PUSH2 0x2A4 JUMP JUMPDEST PUSH2 0x1A4 PUSH2 0x424 CALLDATALOAD PUSH2 0x2A4 JUMP JUMPDEST PUSH2 0x1B0 PUSH2 0x444 CALLDATALOAD PUSH2 0x2A4 JUMP JUMPDEST PUSH2 0x1BC PUSH2 0x464 CALLDATALOAD PUSH2 0x2A4 JUMP JUMPDEST PUSH2 0x1C8 PUSH2 0x484 CALLDATALOAD PUSH2 0x2A4 JUMP JUMPDEST PUSH2 0x1D4 PUSH2 0x4A4 CALLDATALOAD PUSH2 0x2A4 JUMP JUMPDEST PUSH2 0x1E0 PUSH2 0x4C4 CALLDATALOAD PUSH2 0x2A4 JUMP JUMPDEST PUSH2 0x1EC PUSH2 0x4E4 CALLDATALOAD PUSH2 0x2A4 JUMP JUMPDEST PUSH2 0x1F8 PUSH2 0x504 CALLDATALOAD PUSH2 0x2A4 JUMP JUMPDEST PUSH2 0x204 PUSH2 0x524 CALLDATALOAD PUSH2 0x2A4 JUMP JUMPDEST PUSH2 0x210 PUSH2 0x544 CALLDATALOAD PUSH2 0x2A4 JUMP JUMPDEST PUSH2 0x21C PUSH2 0x564 CALLDATALOAD PUSH2 0x2A4 JUMP JUMPDEST PUSH2 0x228 PUSH2 0x584 CALLDATALOAD PUSH2 0x2A4 JUMP JUMPDEST PUSH2 0x234 PUSH2 0x5A4 CALLDATALOAD PUSH2 0x2A4 JUMP JUMPDEST PUSH2 0x240 PUSH2 0x5C4 CALLDATALOAD PUSH2 0x2A4 JUMP JUMPDEST PUSH2 0x24C PUSH2 0x5E4 CALLDATALOAD PUSH2 0x2A4 JUMP JUMPDEST PUSH2 0x258 PUSH2 0x604 CALLDATALOAD PUSH2 0x2A4 JUMP JUMPDEST PUSH2 0x264 PUSH2 0x624 CALLDATALOAD PUSH2 0x2A4 JUMP JUMPDEST PUSH2 0x270 PUSH2 0x644 CALLDATALOAD PUSH2 0x2A4 JUMP JUMPDEST PUSH2 0x1A05 JUMP JUMPDEST DUP2 MSTORE RETURN JUMPDEST DUP3 DUP1 REVERT JUMPDEST POP DUP1 REVERT JUMPDEST DUP1 REVERT JUMPDEST SWAP1 PUSH1 0x4 SWAP2 PUSH1 0x44 GT PUSH2 0x291 JUMPI JUMP JUMPDEST PUSH1 0x0 DUP1 REVERT JUMPDEST SWAP1 PUSH1 0xC4 SWAP2 PUSH2 0x104 GT PUSH2 0x291 JUMPI JUMP JUMPDEST PUSH32 0x30644E72E131A029B85045B68181585D2833E84879B9709143E1F593F0000001 GT ISZERO PUSH2 0x2CD JUMPI JUMP JUMPDEST PUSH1 0x0 DUP1 MSTORE PUSH1 0x20 PUSH1 0x0 RETURN JUMPDEST PUSH1 0x40 MLOAD SWAP1 PUSH32 0x16A3D7B1C68ECDEDCEF3343AA40BBF5A019D266F83FD13CE6628EA2CE6FB0C12 DUP3 MSTORE PUSH32 0x1FA0DA55A822E336329E89D8CBED7053246A6FA72260E4BBFCAEB7E64D43D00B PUSH1 0x20 DUP4 ADD MSTORE PUSH1 0x40 DUP3 ADD SWAP1 DUP2 MSTORE PUSH2 0x7CF NOT PUSH1 0x40 DUP4 PUSH1 0x60 DUP2 PUSH1 0x7 DUP6 GAS ADD STATICCALL ISZERO PUSH2 0x2CD JUMPI PUSH1 0x40 SWAP3 PUSH1 0x6 PUSH1 0x80 SWAP4 SWAP3 DUP5 SWAP4 DUP5 MLOAD SWAP1 MSTORE PUSH1 0xA0 MLOAD PUSH1 0x60 DUP5 ADD MSTORE GAS ADD STATICCALL ISZERO PUSH2 0x2CD JUMPI JUMP JUMPDEST PUSH1 0x40 MLOAD SWAP1 PUSH32 0x24344BBB33E78A237B28C67EA540F34ED2070F6B3D1ACB42BB3FA1D4D0BCB241 DUP3 MSTORE PUSH32 0x24627B50DE0D66D1218768DA1A5AF0A4FA5E95A0C554B5349D8D1329B98C6422 PUSH1 0x20 DUP4 ADD MSTORE PUSH1 0x40 DUP3 ADD SWAP1 DUP2 MSTORE PUSH2 0x7CF NOT PUSH1 0x40 DUP4 PUSH1 0x60 DUP2 PUSH1 0x7 DUP6 GAS ADD STATICCALL ISZERO PUSH2 0x2CD JUMPI PUSH1 0x40 SWAP3 PUSH1 0x6 PUSH1 0x80 SWAP4 SWAP3 DUP5 SWAP4 DUP5 MLOAD SWAP1 MSTORE PUSH1 0xA0 MLOAD PUSH1 0x60 DUP5 ADD MSTORE GAS ADD STATICCALL ISZERO PUSH2 0x2CD JUMPI JUMP JUMPDEST PUSH1 0x40 MLOAD SWAP1 PUSH32 0x1B3AEA2CFA0D238D5B76E201739C96DA0F40B7A4C5ACB1BE1F61CF7BD45405E6 DUP3 MSTORE PUSH32 0x3FD005D7CDC908AD57EF52E534FFDEDC86856EE033CBA2474F8283A8C859BB0 PUSH1 0x20 DUP4 ADD MSTORE PUSH1 0x40 DUP3 ADD SWAP1 DUP2 MSTORE PUSH2 0x7CF NOT PUSH1 0x40 DUP4 PUSH1 0x60 DUP2 PUSH1 0x7 DUP6 GAS ADD STATICCALL ISZERO PUSH2 0x2CD JUMPI PUSH1 0x40 SWAP3 PUSH1 0x6 PUSH1 0x80 SWAP4 SWAP3 DUP5 SWAP4 DUP5 MLOAD SWAP1 MSTORE PUSH1 0xA0 MLOAD PUSH1 0x60 DUP5 ADD MSTORE GAS ADD STATICCALL ISZERO PUSH2 0x2CD JUMPI JUMP JUMPDEST PUSH1 0x40 MLOAD SWAP1 PUSH32 0x258317B287DF342EDFD5BA81AFD7A7ED900BBA651DFD276BCDAE64833E427199 DUP3 MSTORE PUSH32 0x229F8D1E49C7207AE4FC7CAC35426980019E150ECA7565F17C87DFB0F8B8689D PUSH1 0x20 DUP4 ADD MSTORE PUSH1 0x40 DUP3 ADD SWAP1 DUP2 MSTORE PUSH2 0x7CF NOT PUSH1 0x40 DUP4 PUSH1 0x60 DUP2 PUSH1 0x7 DUP6 GAS ADD STATICCALL ISZERO PUSH2 0x2CD JUMPI PUSH1 0x40 SWAP3 PUSH1 0x6 PUSH1 0x80 SWAP4 SWAP3 DUP5 SWAP4 DUP5 MLOAD SWAP1 MSTORE PUSH1 0xA0 MLOAD PUSH1 0x60 DUP5 ADD MSTORE GAS ADD STATICCALL ISZERO PUSH2 0x2CD JUMPI JUMP JUMPDEST PUSH1 0x40 MLOAD SWAP1 PUSH32 0x1A9FC6EF3F2F6D47DA459FDDFD364C5C5B4A93D964C94F856B4E1E5D698E217E DUP3 MSTORE PUSH32 0xCC94619FBB94E1C235A43FFF7ADA9B6164A8DE2AAC120404A081ECFA9DAD9AB PUSH1 0x20 DUP4 ADD MSTORE PUSH1 0x40 DUP3 ADD SWAP1 DUP2 MSTORE PUSH2 0x7CF NOT PUSH1 0x40 DUP4 PUSH1 0x60 DUP2 PUSH1 0x7 DUP6 GAS ADD STATICCALL ISZERO PUSH2 0x2CD JUMPI PUSH1 0x40 SWAP3 PUSH1 0x6 PUSH1 0x80 SWAP4 SWAP3 DUP5 SWAP4 DUP5 MLOAD SWAP1 MSTORE PUSH1 0xA0 MLOAD PUSH1 0x60 DUP5 ADD MSTORE GAS ADD STATICCALL ISZERO PUSH2 0x2CD JUMPI JUMP JUMPDEST PUSH1 0x40 MLOAD SWAP1 PUSH32 0x15E86BD82110FFEA40A2C4587B5C615A077F68970F6277C0A7D022E917763002 DUP3 MSTORE PUSH32 0x122F74469A8FD01FDF55CA4A61F13D4E47B93CB5D0112CDB165A744173141421 PUSH1 0x20 DUP4 ADD MSTORE PUSH1 0x40 DUP3 ADD SWAP1 DUP2 MSTORE PUSH2 0x7CF NOT PUSH1 0x40 DUP4 PUSH1 0x60 DUP2 PUSH1 0x7 DUP6 GAS ADD STATICCALL ISZERO PUSH2 0x2CD JUMPI PUSH1 0x40 SWAP3 PUSH1 0x6 PUSH1 0x80 SWAP4 SWAP3 DUP5 SWAP4 DUP5 MLOAD SWAP1 MSTORE PUSH1 0xA0 MLOAD PUSH1 0x60 DUP5 ADD MSTORE GAS ADD STATICCALL ISZERO PUSH2 0x2CD JUMPI JUMP JUMPDEST PUSH1 0x40 MLOAD SWAP1 PUSH32 0x25C5EB76AFA0373A0D8EF959B3C41CF4D411126BC879D905E868EFCDAFB90E9C DUP3 MSTORE PUSH32 0x1CF58814D028BBC585D82E9782420D2CF397500CA5B84BB47D8520C84C7E4B06 PUSH1 0x20 DUP4 ADD MSTORE PUSH1 0x40 DUP3 ADD SWAP1 DUP2 MSTORE PUSH2 0x7CF NOT PUSH1 0x40 DUP4 PUSH1 0x60 DUP2 PUSH1 0x7 DUP6 GAS ADD STATICCALL ISZERO PUSH2 0x2CD JUMPI PUSH1 0x40 SWAP3 PUSH1 0x6 PUSH1 0x80 SWAP4 SWAP3 DUP5 SWAP4 DUP5 MLOAD SWAP1 MSTORE PUSH1 0xA0 MLOAD PUSH1 0x60 DUP5 ADD MSTORE GAS ADD STATICCALL ISZERO PUSH2 0x2CD JUMPI JUMP JUMPDEST PUSH1 0x40 MLOAD SWAP1 PUSH32 0x1E5EFCE63BFB8C482AA4BE288AD5EC35654281911C88FFFB538A90993BF4FAD9 DUP3 MSTORE PUSH32 0x258322F0F489199A79BE06467B2A8EBBD07D62BC9A01B1CA4B38B3B18FEFAF1F PUSH1 0x20 DUP4 ADD MSTORE PUSH1 0x40 DUP3 ADD SWAP1 DUP2 MSTORE PUSH2 0x7CF NOT PUSH1 0x40 DUP4 PUSH1 0x60 DUP2 PUSH1 0x7 DUP6 GAS ADD STATICCALL ISZERO PUSH2 0x2CD JUMPI PUSH1 0x40 SWAP3 PUSH1 0x6 PUSH1 0x80 SWAP4 SWAP3 DUP5 SWAP4 DUP5 MLOAD SWAP1 MSTORE PUSH1 0xA0 MLOAD PUSH1 0x60 DUP5 ADD MSTORE GAS ADD STATICCALL ISZERO PUSH2 0x2CD JUMPI JUMP JUMPDEST PUSH1 0x40 MLOAD SWAP1 PUSH32 0x2D171A74A4676C830D6678C60D72115A879E5B00A9EEA687ED281B3B6B3E7A63 DUP3 MSTORE PUSH32 0x2DF53935230330E6C57EAD4A45AECD8372BF2B36008E65D63BCDD4EF39A9B1CE PUSH1 0x20 DUP4 ADD MSTORE PUSH1 0x40 DUP3 ADD SWAP1 DUP2 MSTORE PUSH2 0x7CF NOT PUSH1 0x40 DUP4 PUSH1 0x60 DUP2 PUSH1 0x7 DUP6 GAS ADD STATICCALL ISZERO PUSH2 0x2CD JUMPI PUSH1 0x40 SWAP3 PUSH1 0x6 PUSH1 0x80 SWAP4 SWAP3 DUP5 SWAP4 DUP5 MLOAD SWAP1 MSTORE PUSH1 0xA0 MLOAD PUSH1 0x60 DUP5 ADD MSTORE GAS ADD STATICCALL ISZERO PUSH2 0x2CD JUMPI JUMP JUMPDEST PUSH1 0x40 MLOAD SWAP1 PUSH32 0x2BD60EA59BFAF3FC36D89255366C477DC9714B1902EAD3AD58C3D24AD96E9AE9 DUP3 MSTORE PUSH32 0x1B2886D270971726E3622DD7F2D9E8E54BFB3CB9FC4C858DD9F6010EDD4B2C32 PUSH1 0x20 DUP4 ADD MSTORE PUSH1 0x40 DUP3 ADD SWAP1 DUP2 MSTORE PUSH2 0x7CF NOT PUSH1 0x40 DUP4 PUSH1 0x60 DUP2 PUSH1 0x7 DUP6 GAS ADD STATICCALL ISZERO PUSH2 0x2CD JUMPI PUSH1 0x40 SWAP3 PUSH1 0x6 PUSH1 0x80 SWAP4 SWAP3 DUP5 SWAP4 DUP5 MLOAD SWAP1 MSTORE PUSH1 0xA0 MLOAD PUSH1 0x60 DUP5 ADD MSTORE GAS ADD STATICCALL ISZERO PUSH2 0x2CD JUMPI JUMP JUMPDEST PUSH1 0x40 MLOAD SWAP1 PUSH32 0x4817AF99912384942281F014F006FCAF9F725E43F7A1BFEE8EB49F43B6B3BDF DUP3 MSTORE PUSH32 0x10C69F1E3AF64E4D25218FF59FBF41CFBD7EB4500038B8D798BAF68DEFDD2009 PUSH1 0x20 DUP4 ADD MSTORE PUSH1 0x40 DUP3 ADD SWAP1 DUP2 MSTORE PUSH2 0x7CF NOT PUSH1 0x40 DUP4 PUSH1 0x60 DUP2 PUSH1 0x7 DUP6 GAS ADD STATICCALL ISZERO PUSH2 0x2CD JUMPI PUSH1 0x40 SWAP3 PUSH1 0x6 PUSH1 0x80 SWAP4 SWAP3 DUP5 SWAP4 DUP5 MLOAD SWAP1 MSTORE PUSH1 0xA0 MLOAD PUSH1 0x60 DUP5 ADD MSTORE GAS ADD STATICCALL ISZERO PUSH2 0x2CD JUMPI JUMP JUMPDEST PUSH1 0x40 MLOAD SWAP1 PUSH32 0xDF60DAE6A3E0CAFF0CC3432358222E374CE7ADF4E1B7E7A361A7BA75FEF0ABC DUP3 MSTORE PUSH32 0x1415348CD61176015A8777519B159B2BB05D0DD150778CAA62377747C33ACD8 PUSH1 0x20 DUP4 ADD MSTORE PUSH1 0x40 DUP3 ADD SWAP1 DUP2 MSTORE PUSH2 0x7CF NOT PUSH1 0x40 DUP4 PUSH1 0x60 DUP2 PUSH1 0x7 DUP6 GAS ADD STATICCALL ISZERO PUSH2 0x2CD JUMPI PUSH1 0x40 SWAP3 PUSH1 0x6 PUSH1 0x80 SWAP4 SWAP3 DUP5 SWAP4 DUP5 MLOAD SWAP1 MSTORE PUSH1 0xA0 MLOAD PUSH1 0x60 DUP5 ADD MSTORE GAS ADD STATICCALL ISZERO PUSH2 0x2CD JUMPI JUMP JUMPDEST PUSH1 0x40 MLOAD SWAP1 PUSH32 0x1EA2FF49558AC0B1A1EE76513FCF969823E872480D4C76F362E46D067A7B58B6 DUP3 MSTORE PUSH32 0xE57B04BD7DD3E7D9D30FAFA7F433BBDF7C040B4E5BF8C80AB0D9187B29ABCD3 PUSH1 0x20 DUP4 ADD MSTORE PUSH1 0x40 DUP3 ADD SWAP1 DUP2 MSTORE PUSH2 0x7CF NOT PUSH1 0x40 DUP4 PUSH1 0x60 DUP2 PUSH1 0x7 DUP6 GAS ADD STATICCALL ISZERO PUSH2 0x2CD JUMPI PUSH1 0x40 SWAP3 PUSH1 0x6 PUSH1 0x80 SWAP4 SWAP3 DUP5 SWAP4 DUP5 MLOAD SWAP1 MSTORE PUSH1 0xA0 MLOAD PUSH1 0x60 DUP5 ADD MSTORE GAS ADD STATICCALL ISZERO PUSH2 0x2CD JUMPI JUMP JUMPDEST PUSH1 0x40 MLOAD SWAP1 PUSH32 0x177FA4DBACCEC6ED185795978E472C1C0FC89247E0E96A221CAFDF53EA41177C DUP3 MSTORE PUSH32 0x806AA86E7F15200CC07E38AA6145FB844312B274C64741DDFDDECF52D76EDDB PUSH1 0x20 DUP4 ADD MSTORE PUSH1 0x40 DUP3 ADD SWAP1 DUP2 MSTORE PUSH2 0x7CF NOT PUSH1 0x40 DUP4 PUSH1 0x60 DUP2 PUSH1 0x7 DUP6 GAS ADD STATICCALL ISZERO PUSH2 0x2CD JUMPI PUSH1 0x40 SWAP3 PUSH1 0x6 PUSH1 0x80 SWAP4 SWAP3 DUP5 SWAP4 DUP5 MLOAD SWAP1 MSTORE PUSH1 0xA0 MLOAD PUSH1 0x60 DUP5 ADD MSTORE GAS ADD STATICCALL ISZERO PUSH2 0x2CD JUMPI JUMP JUMPDEST PUSH1 0x40 MLOAD SWAP1 PUSH32 0x24BD032CDD2BBA3F4F74559F38578F9DED7360EF496809D1CB85957EA46E4BB9 DUP3 MSTORE PUSH32 0x22072A3DADF7E08CBCEFFEB9958C71502A3FC4AB1239C4ED97D01EEAD6709C77 PUSH1 0x20 DUP4 ADD MSTORE PUSH1 0x40 DUP3 ADD SWAP1 DUP2 MSTORE PUSH2 0x7CF NOT PUSH1 0x40 DUP4 PUSH1 0x60 DUP2 PUSH1 0x7 DUP6 GAS ADD STATICCALL ISZERO PUSH2 0x2CD JUMPI PUSH1 0x40 SWAP3 PUSH1 0x6 PUSH1 0x80 SWAP4 SWAP3 DUP5 SWAP4 DUP5 MLOAD SWAP1 MSTORE PUSH1 0xA0 MLOAD PUSH1 0x60 DUP5 ADD MSTORE GAS ADD STATICCALL ISZERO PUSH2 0x2CD JUMPI JUMP JUMPDEST PUSH1 0x40 MLOAD SWAP1 PUSH32 0x2EEE2F5B0653D86254A48DD3D05A15DCD4172E1E8B3B45E5EA1598C6295D1E17 DUP3 MSTORE PUSH32 0x10BE71710DF5BF02A122B7415C4CF7FC6887E70658FD9C2E670EB9CF518D26C6 PUSH1 0x20 DUP4 ADD MSTORE PUSH1 0x40 DUP3 ADD SWAP1 DUP2 MSTORE PUSH2 0x7CF NOT PUSH1 0x40 DUP4 PUSH1 0x60 DUP2 PUSH1 0x7 DUP6 GAS ADD STATICCALL ISZERO PUSH2 0x2CD JUMPI PUSH1 0x40 SWAP3 PUSH1 0x6 PUSH1 0x80 SWAP4 SWAP3 DUP5 SWAP4 DUP5 MLOAD SWAP1 MSTORE PUSH1 0xA0 MLOAD PUSH1 0x60 DUP5 ADD MSTORE GAS ADD STATICCALL ISZERO PUSH2 0x2CD JUMPI JUMP JUMPDEST PUSH1 0x40 MLOAD SWAP1 PUSH32 0x6393BB4AEBC97A79BA50AE1866CA356B1F41EF61D2971EE4F70161BF2B61741 DUP3 MSTORE PUSH32 0x2880E1DE26D05CB982777747C988D68D91ECB6DFB6C6D024DDDDA0D107473699 PUSH1 0x20 DUP4 ADD MSTORE PUSH1 0x40 DUP3 ADD SWAP1 DUP2 MSTORE PUSH2 0x7CF NOT PUSH1 0x40 DUP4 PUSH1 0x60 DUP2 PUSH1 0x7 DUP6 GAS ADD STATICCALL ISZERO PUSH2 0x2CD JUMPI PUSH1 0x40 SWAP3 PUSH1 0x6 PUSH1 0x80 SWAP4 SWAP3 DUP5 SWAP4 DUP5 MLOAD SWAP1 MSTORE PUSH1 0xA0 MLOAD PUSH1 0x60 DUP5 ADD MSTORE GAS ADD STATICCALL ISZERO PUSH2 0x2CD JUMPI JUMP JUMPDEST PUSH1 0x40 MLOAD SWAP1 PUSH32 0x2990B7621783382EB83E9167A18B500CF68AED1B724BD56E8F979FB6F57AB0E DUP3 MSTORE PUSH32 0x139C2E119D561018DCBA8BC792E1F9EEA8AE31077693A4E87EC5C96403052644 PUSH1 0x20 DUP4 ADD MSTORE PUSH1 0x40 DUP3 ADD SWAP1 DUP2 MSTORE PUSH2 0x7CF NOT PUSH1 0x40 DUP4 PUSH1 0x60 DUP2 PUSH1 0x7 DUP6 GAS ADD STATICCALL ISZERO PUSH2 0x2CD JUMPI PUSH1 0x40 SWAP3 PUSH1 0x6 PUSH1 0x80 SWAP4 SWAP3 DUP5 SWAP4 DUP5 MLOAD SWAP1 MSTORE PUSH1 0xA0 MLOAD PUSH1 0x60 DUP5 ADD MSTORE GAS ADD STATICCALL ISZERO PUSH2 0x2CD JUMPI JUMP JUMPDEST PUSH1 0x40 MLOAD SWAP1 PUSH32 0x2857BB41C109A227E852518E5B8AC4E5437531E2D6B3080A355A84FCF02EA0A7 DUP3 MSTORE PUSH32 0xB9DD0A8E861F8127DA957D526399649B2F37F4D0C52E711511CA76896B616C9 PUSH1 0x20 DUP4 ADD MSTORE PUSH1 0x40 DUP3 ADD SWAP1 DUP2 MSTORE PUSH2 0x7CF NOT PUSH1 0x40 DUP4 PUSH1 0x60 DUP2 PUSH1 0x7 DUP6 GAS ADD STATICCALL ISZERO PUSH2 0x2CD JUMPI PUSH1 0x40 SWAP3 PUSH1 0x6 PUSH1 0x80 SWAP4 SWAP3 DUP5 SWAP4 DUP5 MLOAD SWAP1 MSTORE PUSH1 0xA0 MLOAD PUSH1 0x60 DUP5 ADD MSTORE GAS ADD STATICCALL ISZERO PUSH2 0x2CD JUMPI JUMP JUMPDEST PUSH1 0x40 MLOAD SWAP1 PUSH32 0x4653C5077824CAC1C6DF932855A381C2F0CD8CC3D9FCDF3DB276D778FDC3FBC DUP3 MSTORE PUSH32 0xA56C264DFC2D19428914F82072EC381B349A8BE7B299FC3730428CD0C051E36 PUSH1 0x20 DUP4 ADD MSTORE PUSH1 0x40 DUP3 ADD SWAP1 DUP2 MSTORE PUSH2 0x7CF NOT PUSH1 0x40 DUP4 PUSH1 0x60 DUP2 PUSH1 0x7 DUP6 GAS ADD STATICCALL ISZERO PUSH2 0x2CD JUMPI PUSH1 0x40 SWAP3 PUSH1 0x6 PUSH1 0x80 SWAP4 SWAP3 DUP5 SWAP4 DUP5 MLOAD SWAP1 MSTORE PUSH1 0xA0 MLOAD PUSH1 0x60 DUP5 ADD MSTORE GAS ADD STATICCALL ISZERO PUSH2 0x2CD JUMPI JUMP JUMPDEST PUSH1 0x40 MLOAD SWAP1 PUSH32 0x24DE1FBB84E5C199D9F8776B3383017FD98D94D6F6BD2BD2CC62697A92047ABE DUP3 MSTORE PUSH32 0x127AB929229EA59D805A3923656E4D4B108D99D7DA201EFBB6380CF44C621577 PUSH1 0x20 DUP4 ADD MSTORE PUSH1 0x40 DUP3 ADD SWAP1 DUP2 MSTORE PUSH2 0x7CF NOT PUSH1 0x40 DUP4 PUSH1 0x60 DUP2 PUSH1 0x7 DUP6 GAS ADD STATICCALL ISZERO PUSH2 0x2CD JUMPI PUSH1 0x40 SWAP3 PUSH1 0x6 PUSH1 0x80 SWAP4 SWAP3 DUP5 SWAP4 DUP5 MLOAD SWAP1 MSTORE PUSH1 0xA0 MLOAD PUSH1 0x60 DUP5 ADD MSTORE GAS ADD STATICCALL ISZERO PUSH2 0x2CD JUMPI JUMP JUMPDEST PUSH1 0x40 MLOAD SWAP1 PUSH32 0xF8B83B6311F2C26A223D35B5FED588B34410FFCE6AFC8496B92CD7ACF932610 DUP3 MSTORE PUSH32 0x1E1C9C532B11A528E7BB941340B52FC658FB34D61A836680960774433F6A334E PUSH1 0x20 DUP4 ADD MSTORE PUSH1 0x40 DUP3 ADD SWAP1 DUP2 MSTORE PUSH2 0x7CF NOT PUSH1 0x40 DUP4 PUSH1 0x60 DUP2 PUSH1 0x7 DUP6 GAS ADD STATICCALL ISZERO PUSH2 0x2CD JUMPI PUSH1 0x40 SWAP3 PUSH1 0x6 PUSH1 0x80 SWAP4 SWAP3 DUP5 SWAP4 DUP5 MLOAD SWAP1 MSTORE PUSH1 0xA0 MLOAD PUSH1 0x60 DUP5 ADD MSTORE GAS ADD STATICCALL ISZERO PUSH2 0x2CD JUMPI JUMP JUMPDEST PUSH1 0x40 MLOAD SWAP1 PUSH32 0x1323493B51E5253732F1BD0A218297166C47ACC8A3803DA2C5361EF296EAE357 DUP3 MSTORE PUSH32 0x158D3767E1DD9EC3EB974C8C77417C5728225941782210CA0E21E54397FB5E00 PUSH1 0x20 DUP4 ADD MSTORE PUSH1 0x40 DUP3 ADD SWAP1 DUP2 MSTORE PUSH2 0x7CF NOT PUSH1 0x40 DUP4 PUSH1 0x60 DUP2 PUSH1 0x7 DUP6 GAS ADD STATICCALL ISZERO PUSH2 0x2CD JUMPI PUSH1 0x40 SWAP3 PUSH1 0x6 PUSH1 0x80 SWAP4 SWAP3 DUP5 SWAP4 DUP5 MLOAD SWAP1 MSTORE PUSH1 0xA0 MLOAD PUSH1 0x60 DUP5 ADD MSTORE GAS ADD STATICCALL ISZERO PUSH2 0x2CD JUMPI JUMP JUMPDEST PUSH1 0x40 MLOAD SWAP1 PUSH32 0x14D179A263D52CBDDC61BB24E731038D485BFEB2319E2A08A3486243ED6238C2 DUP3 MSTORE PUSH32 0x2B9B0010C107D511D31CC35EEE6FD803A816E61095FE705B1845C8674CF8F52E PUSH1 0x20 DUP4 ADD MSTORE PUSH1 0x40 DUP3 ADD SWAP1 DUP2 MSTORE PUSH2 0x7CF NOT PUSH1 0x40 DUP4 PUSH1 0x60 DUP2 PUSH1 0x7 DUP6 GAS ADD STATICCALL ISZERO PUSH2 0x2CD JUMPI PUSH1 0x40 SWAP3 PUSH1 0x6 PUSH1 0x80 SWAP4 SWAP3 DUP5 SWAP4 DUP5 MLOAD SWAP1 MSTORE PUSH1 0xA0 MLOAD PUSH1 0x60 DUP5 ADD MSTORE GAS ADD STATICCALL ISZERO PUSH2 0x2CD JUMPI JUMP JUMPDEST PUSH1 0x40 MLOAD SWAP1 PUSH32 0x1746C4547DBFD1B55AF514506F3286E4517E4913D210831F9768BF65DF9753F8 DUP3 MSTORE PUSH32 0x3EF4F97C8E52D79365CCFBA10D375251A05689F01736D91E04CB4E29407F0A0 PUSH1 0x20 DUP4 ADD MSTORE PUSH1 0x40 DUP3 ADD SWAP1 DUP2 MSTORE PUSH2 0x7CF NOT PUSH1 0x40 DUP4 PUSH1 0x60 DUP2 PUSH1 0x7 DUP6 GAS ADD STATICCALL ISZERO PUSH2 0x2CD JUMPI PUSH1 0x40 SWAP3 PUSH1 0x6 PUSH1 0x80 SWAP4 SWAP3 DUP5 SWAP4 DUP5 MLOAD SWAP1 MSTORE PUSH1 0xA0 MLOAD PUSH1 0x60 DUP5 ADD MSTORE GAS ADD STATICCALL ISZERO PUSH2 0x2CD JUMPI JUMP JUMPDEST PUSH1 0x40 MLOAD SWAP1 PUSH32 0x160669F93E927924D60B0A0CB163A61292C55D1A716014CEAB84CBDE7FF21321 DUP3 MSTORE PUSH32 0x2F5AD946224A11C7339C37E79A985DEFB8E2E93731F9788E0AE7840D08DD2760 PUSH1 0x20 DUP4 ADD MSTORE PUSH1 0x40 DUP3 ADD SWAP1 DUP2 MSTORE PUSH2 0x7CF NOT PUSH1 0x40 DUP4 PUSH1 0x60 DUP2 PUSH1 0x7 DUP6 GAS ADD STATICCALL ISZERO PUSH2 0x2CD JUMPI PUSH1 0x40 SWAP3 PUSH1 0x6 PUSH1 0x80 SWAP4 SWAP3 DUP5 SWAP4 DUP5 MLOAD SWAP1 MSTORE PUSH1 0xA0 MLOAD PUSH1 0x60 DUP5 ADD MSTORE GAS ADD STATICCALL ISZERO PUSH2 0x2CD JUMPI JUMP JUMPDEST PUSH1 0x40 MLOAD SWAP1 PUSH32 0x8BDA41A91CD3CA42B3F807B29EF9AEF3D9617CD9F83934A8154CC707776F0E7 DUP3 MSTORE PUSH32 0x302E93A539A2AF46CCFA87B30FD74C83E10CFEF2090FFDA423BAB224A4A2494D PUSH1 0x20 DUP4 ADD MSTORE PUSH1 0x40 DUP3 ADD SWAP1 DUP2 MSTORE PUSH2 0x7CF NOT PUSH1 0x40 DUP4 PUSH1 0x60 DUP2 PUSH1 0x7 DUP6 GAS ADD STATICCALL ISZERO PUSH2 0x2CD JUMPI PUSH1 0x40 SWAP3 PUSH1 0x6 PUSH1 0x80 SWAP4 SWAP3 DUP5 SWAP4 DUP5 MLOAD SWAP1 MSTORE PUSH1 0xA0 MLOAD PUSH1 0x60 DUP5 ADD MSTORE GAS ADD STATICCALL ISZERO PUSH2 0x2CD JUMPI JUMP JUMPDEST PUSH1 0x40 MLOAD SWAP1 PUSH32 0x1D7BEA7E1A2CD69DB6B3E35F875EFF28B0DBF7B3AF6EB046540431DA55FCAB9F DUP3 MSTORE PUSH32 0x43B0049011324652F7FFB9FAFAAC1042888B05201A27FCFD85237ECAD062964 PUSH1 0x20 DUP4 ADD MSTORE PUSH1 0x40 DUP3 ADD SWAP1 DUP2 MSTORE PUSH2 0x7CF NOT PUSH1 0x40 DUP4 PUSH1 0x60 DUP2 PUSH1 0x7 DUP6 GAS ADD STATICCALL ISZERO PUSH2 0x2CD JUMPI PUSH1 0x40 SWAP3 PUSH1 0x6 PUSH1 0x80 SWAP4 SWAP3 DUP5 SWAP4 DUP5 MLOAD SWAP1 MSTORE PUSH1 0xA0 MLOAD PUSH1 0x60 DUP5 ADD MSTORE GAS ADD STATICCALL ISZERO PUSH2 0x2CD JUMPI JUMP JUMPDEST PUSH1 0x40 MLOAD SWAP1 PUSH32 0x7FAC8BFAE3C56FB1561388BD63D837BEA390842B197B911CCABC9444CF792CB DUP3 MSTORE PUSH32 0x164AAF5533065F6C17FFA2604253E3B8E6237EFF1CC7B52767A73667761E9378 PUSH1 0x20 DUP4 ADD MSTORE PUSH1 0x40 DUP3 ADD SWAP1 DUP2 MSTORE PUSH2 0x7CF NOT PUSH1 0x40 DUP4 PUSH1 0x60 DUP2 PUSH1 0x7 DUP6 GAS ADD STATICCALL ISZERO PUSH2 0x2CD JUMPI PUSH1 0x40 SWAP3 PUSH1 0x6 PUSH1 0x80 SWAP4 SWAP3 DUP5 SWAP4 DUP5 MLOAD SWAP1 MSTORE PUSH1 0xA0 MLOAD PUSH1 0x60 DUP5 ADD MSTORE GAS ADD STATICCALL ISZERO PUSH2 0x2CD JUMPI JUMP JUMPDEST PUSH1 0x40 MLOAD SWAP1 PUSH32 0x1F8072D169A6BA4988AD1EA03723102138C7DF150ECEB07FAA6DE692EE6EC02D DUP3 MSTORE PUSH32 0x246EB79565097C400838CB84CE9BBFB51D1F1B7F55FA56A76C1CFE497992EAF PUSH1 0x20 DUP4 ADD MSTORE PUSH1 0x40 DUP3 ADD SWAP1 DUP2 MSTORE PUSH2 0x7CF NOT PUSH1 0x40 DUP4 PUSH1 0x60 DUP2 PUSH1 0x7 DUP6 GAS ADD STATICCALL ISZERO PUSH2 0x2CD JUMPI PUSH1 0x40 SWAP3 PUSH1 0x6 PUSH1 0x80 SWAP4 SWAP3 DUP5 SWAP4 DUP5 MLOAD SWAP1 MSTORE PUSH1 0xA0 MLOAD PUSH1 0x60 DUP5 ADD MSTORE GAS ADD STATICCALL ISZERO PUSH2 0x2CD JUMPI JUMP JUMPDEST PUSH1 0x40 MLOAD SWAP1 PUSH32 0x12E6281CA360F53923860BE59C1535C178467330235A5154B465015CFBFC1BBF DUP3 MSTORE PUSH32 0x155974B9650B744E662C60F9DCD8E5D4CED3369DA9DD607F6566711497B29FFB PUSH1 0x20 DUP4 ADD MSTORE PUSH1 0x40 DUP3 ADD SWAP1 DUP2 MSTORE PUSH2 0x7CF NOT PUSH1 0x40 DUP4 PUSH1 0x60 DUP2 PUSH1 0x7 DUP6 GAS ADD STATICCALL ISZERO PUSH2 0x2CD JUMPI PUSH1 0x40 SWAP3 PUSH1 0x6 PUSH1 0x80 SWAP4 SWAP3 DUP5 SWAP4 DUP5 MLOAD SWAP1 MSTORE PUSH1 0xA0 MLOAD PUSH1 0x60 DUP5 ADD MSTORE GAS ADD STATICCALL ISZERO PUSH2 0x2CD JUMPI JUMP JUMPDEST PUSH1 0x40 MLOAD SWAP1 PUSH32 0x20BF6137985B5F7DE1D89FB22CC214E78D748C1D78CF3D6149975D1E35BBD506 DUP3 MSTORE PUSH32 0x262873F4CB69288AF391BAFB7AC35893926F08F598E2F0FA233F60444A15060F PUSH1 0x20 DUP4 ADD MSTORE PUSH1 0x40 DUP3 ADD SWAP1 DUP2 MSTORE PUSH2 0x7CF NOT PUSH1 0x40 DUP4 PUSH1 0x60 DUP2 PUSH1 0x7 DUP6 GAS ADD STATICCALL ISZERO PUSH2 0x2CD JUMPI PUSH1 0x40 SWAP3 PUSH1 0x6 PUSH1 0x80 SWAP4 SWAP3 DUP5 SWAP4 DUP5 MLOAD SWAP1 MSTORE PUSH1 0xA0 MLOAD PUSH1 0x60 DUP5 ADD MSTORE GAS ADD STATICCALL ISZERO PUSH2 0x2CD JUMPI JUMP JUMPDEST PUSH1 0x40 MLOAD SWAP1 PUSH32 0x1380CC25E4B92E00532B8FE6E7F5B0D4AA532E331D6C3AABBA39B5EBC646C71 DUP3 MSTORE PUSH32 0x2CD829575111CC43426329FCB0F362D8892B7FACA1E15109D1C35AAB1E17EAEB PUSH1 0x20 DUP4 ADD MSTORE PUSH1 0x40 DUP3 ADD SWAP1 DUP2 MSTORE PUSH2 0x7CF NOT PUSH1 0x40 DUP4 PUSH1 0x60 DUP2 PUSH1 0x7 DUP6 GAS ADD STATICCALL ISZERO PUSH2 0x2CD JUMPI PUSH1 0x40 SWAP3 PUSH1 0x6 PUSH1 0x80 SWAP4 SWAP3 DUP5 SWAP4 DUP5 MLOAD SWAP1 MSTORE PUSH1 0xA0 MLOAD PUSH1 0x60 DUP5 ADD MSTORE GAS ADD STATICCALL ISZERO PUSH2 0x2CD JUMPI JUMP JUMPDEST PUSH1 0x40 MLOAD SWAP1 PUSH32 0xFB132D34E6928545809FCD9B8062B61A9F89EC3159230139237C7CB99C52117 DUP3 MSTORE PUSH32 0xE63BEFAABCED78079F66920DF34F4F8C34AC21F6AF912867839F9BD1E8F157B PUSH1 0x20 DUP4 ADD MSTORE PUSH1 0x40 DUP3 ADD SWAP1 DUP2 MSTORE PUSH2 0x7CF NOT PUSH1 0x40 DUP4 PUSH1 0x60 DUP2 PUSH1 0x7 DUP6 GAS ADD STATICCALL ISZERO PUSH2 0x2CD JUMPI PUSH1 0x40 SWAP3 PUSH1 0x6 PUSH1 0x80 SWAP4 SWAP3 DUP5 SWAP4 DUP5 MLOAD SWAP1 MSTORE PUSH1 0xA0 MLOAD PUSH1 0x60 DUP5 ADD MSTORE GAS ADD STATICCALL ISZERO PUSH2 0x2CD JUMPI JUMP JUMPDEST PUSH1 0x40 MLOAD SWAP1 PUSH32 0x2285D2740D66131C133C40F35A595C9FEDFF2787D1F229BAF27FFE3380370C39 DUP3 MSTORE PUSH32 0x1FCF5907985143D2CFBD19E3048C18196BE2C20CD7EF6F24DF05E9942DEAEEF3 PUSH1 0x20 DUP4 ADD MSTORE PUSH1 0x40 DUP3 ADD SWAP1 DUP2 MSTORE PUSH2 0x7CF NOT PUSH1 0x40 DUP4 PUSH1 0x60 DUP2 PUSH1 0x7 DUP6 GAS ADD STATICCALL ISZERO PUSH2 0x2CD JUMPI PUSH1 0x40 SWAP3 PUSH1 0x6 PUSH1 0x80 SWAP4 SWAP3 DUP5 SWAP4 DUP5 MLOAD SWAP1 MSTORE PUSH1 0xA0 MLOAD PUSH1 0x60 DUP5 ADD MSTORE GAS ADD STATICCALL ISZERO PUSH2 0x2CD JUMPI JUMP JUMPDEST PUSH1 0x40 MLOAD SWAP1 PUSH32 0x9ED75BC17608CD0098710B27981FFFB31019C22D57D7924FE404609DF19F526 DUP3 MSTORE PUSH32 0x47E08F7F7CF70B49D40DE96026AB8EB396D2A41EF11D1A5B2238F732E0A2DF5 PUSH1 0x20 DUP4 ADD MSTORE PUSH1 0x40 DUP3 ADD SWAP1 DUP2 MSTORE PUSH2 0x7CF NOT PUSH1 0x40 DUP4 PUSH1 0x60 DUP2 PUSH1 0x7 DUP6 GAS ADD STATICCALL ISZERO PUSH2 0x2CD JUMPI PUSH1 0x40 SWAP3 PUSH1 0x6 PUSH1 0x80 SWAP4 SWAP3 DUP5 SWAP4 DUP5 MLOAD SWAP1 MSTORE PUSH1 0xA0 MLOAD PUSH1 0x60 DUP5 ADD MSTORE GAS ADD STATICCALL ISZERO PUSH2 0x2CD JUMPI JUMP JUMPDEST PUSH1 0x40 MLOAD SWAP1 PUSH32 0x1C3533C3F72A4D78731D81A5CB6455CAE8D2021BED2AD80F3C28B7D4353C03F6 DUP3 MSTORE PUSH32 0x1A4D7417BD7D61392687FF9D8AD618035A21DA91C6A157A8A17E07020648492B PUSH1 0x20 DUP4 ADD MSTORE PUSH1 0x40 DUP3 ADD SWAP1 DUP2 MSTORE PUSH2 0x7CF NOT PUSH1 0x40 DUP4 PUSH1 0x60 DUP2 PUSH1 0x7 DUP6 GAS ADD STATICCALL ISZERO PUSH2 0x2CD JUMPI PUSH1 0x40 SWAP3 PUSH1 0x6 PUSH1 0x80 SWAP4 SWAP3 DUP5 SWAP4 DUP5 MLOAD SWAP1 MSTORE PUSH1 0xA0 MLOAD PUSH1 0x60 DUP5 ADD MSTORE GAS ADD STATICCALL ISZERO PUSH2 0x2CD JUMPI JUMP JUMPDEST PUSH1 0x40 MLOAD SWAP1 PUSH32 0xBDE8D98902DC03983478FF8A37EBB827AC761763A15120F1963153E18685BE4 DUP3 MSTORE PUSH32 0x22DCA53F7B9239B39348CCAE651A0B70C20E51894AEC187BA052ECA172659770 PUSH1 0x20 DUP4 ADD MSTORE PUSH1 0x40 DUP3 ADD SWAP1 DUP2 MSTORE PUSH2 0x7CF NOT PUSH1 0x40 DUP4 PUSH1 0x60 DUP2 PUSH1 0x7 DUP6 GAS ADD STATICCALL ISZERO PUSH2 0x2CD JUMPI PUSH1 0x40 SWAP3 PUSH1 0x6 PUSH1 0x80 SWAP4 SWAP3 DUP5 SWAP4 DUP5 MLOAD SWAP1 MSTORE PUSH1 0xA0 MLOAD PUSH1 0x60 DUP5 ADD MSTORE GAS ADD STATICCALL ISZERO PUSH2 0x2CD JUMPI JUMP JUMPDEST PUSH1 0x40 MLOAD SWAP1 PUSH32 0x21D07DA668493D93C88357D0CC33BBCECC1FA162BEF4CE42013BA87251697DC3 DUP3 MSTORE PUSH32 0x1ACCE207C200C98C574C94C419AA0B697985549EE10A0FCC02085AC9D87E6BF0 PUSH1 0x20 DUP4 ADD MSTORE PUSH1 0x40 DUP3 ADD SWAP1 DUP2 MSTORE PUSH2 0x7CF NOT PUSH1 0x40 DUP4 PUSH1 0x60 DUP2 PUSH1 0x7 DUP6 GAS ADD STATICCALL ISZERO PUSH2 0x2CD JUMPI PUSH1 0x40 SWAP3 PUSH1 0x6 PUSH1 0x80 SWAP4 SWAP3 DUP5 SWAP4 DUP5 MLOAD SWAP1 MSTORE PUSH1 0xA0 MLOAD PUSH1 0x60 DUP5 ADD MSTORE GAS ADD STATICCALL ISZERO PUSH2 0x2CD JUMPI JUMP JUMPDEST PUSH1 0x40 MLOAD SWAP1 PUSH32 0xC083382916112E05D5554143BFC6427F1ED8AFA1C50EE899246A86FCDCB0666 DUP3 MSTORE PUSH32 0xFA0BCDAFCCA84568E1230B4DDC46B620D2A77F51E833D241F216C7F108D4977 PUSH1 0x20 DUP4 ADD MSTORE PUSH1 0x40 DUP3 ADD SWAP1 DUP2 MSTORE PUSH2 0x7CF NOT PUSH1 0x40 DUP4 PUSH1 0x60 DUP2 PUSH1 0x7 DUP6 GAS ADD STATICCALL ISZERO PUSH2 0x2CD JUMPI PUSH1 0x40 SWAP3 PUSH1 0x6 PUSH1 0x80 SWAP4 SWAP3 DUP5 SWAP4 DUP5 MLOAD SWAP1 MSTORE PUSH1 0xA0 MLOAD PUSH1 0x60 DUP5 ADD MSTORE GAS ADD STATICCALL ISZERO PUSH2 0x2CD JUMPI JUMP JUMPDEST PUSH1 0x40 MLOAD SWAP1 PUSH32 0x2D58343E76813062AE2586B43335A9AF4587E9C39C3ADDB8E62245950EC23DCB DUP3 MSTORE PUSH32 0xB9504A72369B77F7154F702F3E1C13D43F9B5DF24B686801D6F788BF4C5F2B5 PUSH1 0x20 DUP4 ADD MSTORE PUSH1 0x40 DUP3 ADD SWAP1 DUP2 MSTORE PUSH2 0x7CF NOT PUSH1 0x40 DUP4 PUSH1 0x60 DUP2 PUSH1 0x7 DUP6 GAS ADD STATICCALL ISZERO PUSH2 0x2CD JUMPI PUSH1 0x40 SWAP3 PUSH1 0x6 PUSH1 0x80 SWAP4 SWAP3 DUP5 SWAP4 DUP5 MLOAD SWAP1 MSTORE PUSH1 0xA0 MLOAD PUSH1 0x60 DUP5 ADD MSTORE GAS ADD STATICCALL ISZERO PUSH2 0x2CD JUMPI JUMP JUMPDEST PUSH1 0x40 MLOAD SWAP1 PUSH32 0x2281C304D7C6E6D22AB92E108796F1E0E0B3FAE29EC6C2FB1EBC8A9BB3BF23B5 DUP3 MSTORE PUSH32 0x534FAF20E6378155163D2585447E269B6825E4751F66DA86826A3F5C0A57929 PUSH1 0x20 DUP4 ADD MSTORE PUSH1 0x40 DUP3 ADD SWAP1 DUP2 MSTORE PUSH2 0x7CF NOT PUSH1 0x40 DUP4 PUSH1 0x60 DUP2 PUSH1 0x7 DUP6 GAS ADD STATICCALL ISZERO PUSH2 0x2CD JUMPI PUSH1 0x40 SWAP3 PUSH1 0x6 PUSH1 0x80 SWAP4 SWAP3 DUP5 SWAP4 DUP5 MLOAD SWAP1 MSTORE PUSH1 0xA0 MLOAD PUSH1 0x60 DUP5 ADD MSTORE GAS ADD STATICCALL ISZERO PUSH2 0x2CD JUMPI JUMP JUMPDEST PUSH1 0x40 MLOAD SWAP1 PUSH32 0x28DD29889FA21011F1AB2581D9D609CC525CD876E8ED8FF2BF94C27F1918272D DUP3 MSTORE PUSH32 0x27881C9877FA5E2642B5CBAC53C591478F93221C6A9919C4BBE1A468468C14A4 PUSH1 0x20 DUP4 ADD MSTORE PUSH1 0x40 DUP3 ADD SWAP1 DUP2 MSTORE PUSH2 0x7CF NOT PUSH1 0x40 DUP4 PUSH1 0x60 DUP2 PUSH1 0x7 DUP6 GAS ADD STATICCALL ISZERO PUSH2 0x2CD JUMPI PUSH1 0x40 SWAP3 PUSH1 0x6 PUSH1 0x80 SWAP4 SWAP3 DUP5 SWAP4 DUP5 MLOAD SWAP1 MSTORE PUSH1 0xA0 MLOAD PUSH1 0x60 DUP5 ADD MSTORE GAS ADD STATICCALL ISZERO PUSH2 0x2CD JUMPI JUMP JUMPDEST PUSH1 0x20 SWAP1 PUSH32 0x84500AF25D9F069A25409D061DD2E5C9AEAF07864A823821F8EF69D93F1DB5E PUSH1 0x80 MSTORE PUSH32 0x1F0ED224973CB49DA8EFE47EAE170B60D8A31322BA65E9D88843A1D007224D14 PUSH1 0xA0 MSTORE PUSH2 0x1A5C PUSH2 0x104 CALLDATALOAD PUSH2 0x2D7 JUMP JUMPDEST PUSH2 0x1A68 PUSH2 0x124 CALLDATALOAD PUSH2 0x361 JUMP JUMPDEST PUSH2 0x1A74 PUSH2 0x144 CALLDATALOAD PUSH2 0x3EB JUMP JUMPDEST PUSH2 0x1A80 PUSH2 0x164 CALLDATALOAD PUSH2 0x475 JUMP JUMPDEST PUSH2 0x1A8C PUSH2 0x184 CALLDATALOAD PUSH2 0x4FF JUMP JUMPDEST PUSH2 0x1A98 PUSH2 0x1A4 CALLDATALOAD PUSH2 0x589 JUMP JUMPDEST PUSH2 0x1AA4 PUSH2 0x1C4 CALLDATALOAD PUSH2 0x613 JUMP JUMPDEST PUSH2 0x1AB0 PUSH2 0x1E4 CALLDATALOAD PUSH2 0x69D JUMP JUMPDEST PUSH2 0x1ABC PUSH2 0x204 CALLDATALOAD PUSH2 0x727 JUMP JUMPDEST PUSH2 0x1AC8 PUSH2 0x224 CALLDATALOAD PUSH2 0x7B1 JUMP JUMPDEST PUSH2 0x1AD4 PUSH2 0x244 CALLDATALOAD PUSH2 0x83B JUMP JUMPDEST PUSH2 0x1AE0 PUSH2 0x264 CALLDATALOAD PUSH2 0x8C5 JUMP JUMPDEST PUSH2 0x1AEC PUSH2 0x284 CALLDATALOAD PUSH2 0x94F JUMP JUMPDEST PUSH2 0x1AF8 PUSH2 0x2A4 CALLDATALOAD PUSH2 0x9D9 JUMP JUMPDEST PUSH2 0x1B04 PUSH2 0x2C4 CALLDATALOAD PUSH2 0xA63 JUMP JUMPDEST PUSH2 0x1B10 PUSH2 0x2E4 CALLDATALOAD PUSH2 0xAED JUMP JUMPDEST PUSH2 0x1B1C PUSH2 0x304 CALLDATALOAD PUSH2 0xB77 JUMP JUMPDEST PUSH2 0x1B28 PUSH2 0x324 CALLDATALOAD PUSH2 0xC01 JUMP JUMPDEST PUSH2 0x1B34 PUSH2 0x344 CALLDATALOAD PUSH2 0xC8B JUMP JUMPDEST PUSH2 0x1B40 PUSH2 0x364 CALLDATALOAD PUSH2 0xD15 JUMP JUMPDEST PUSH2 0x1B4C PUSH2 0x384 CALLDATALOAD PUSH2 0xD9F JUMP JUMPDEST PUSH2 0x1B58 PUSH2 0x3A4 CALLDATALOAD PUSH2 0xE29 JUMP JUMPDEST PUSH2 0x1B64 PUSH2 0x3C4 CALLDATALOAD PUSH2 0xEB3 JUMP JUMPDEST PUSH2 0x1B70 PUSH2 0x3E4 CALLDATALOAD PUSH2 0xF3D JUMP JUMPDEST PUSH2 0x1B7C PUSH2 0x404 CALLDATALOAD PUSH2 0xFC7 JUMP JUMPDEST PUSH2 0x1B88 PUSH2 0x424 CALLDATALOAD PUSH2 0x1051 JUMP JUMPDEST PUSH2 0x1B94 PUSH2 0x444 CALLDATALOAD PUSH2 0x10DB JUMP JUMPDEST PUSH2 0x1BA0 PUSH2 0x464 CALLDATALOAD PUSH2 0x1165 JUMP JUMPDEST PUSH2 0x1BAC PUSH2 0x484 CALLDATALOAD PUSH2 0x11EF JUMP JUMPDEST PUSH2 0x1BB8 PUSH2 0x4A4 CALLDATALOAD PUSH2 0x1279 JUMP JUMPDEST PUSH2 0x1BC4 PUSH2 0x4C4 CALLDATALOAD PUSH2 0x1303 JUMP JUMPDEST PUSH2 0x1BD0 PUSH2 0x4E4 CALLDATALOAD PUSH2 0x138D JUMP JUMPDEST PUSH2 0x1BDC PUSH2 0x504 CALLDATALOAD PUSH2 0x1417 JUMP JUMPDEST PUSH2 0x1BE8 PUSH2 0x524 CALLDATALOAD PUSH2 0x14A1 JUMP JUMPDEST PUSH2 0x1BF4 PUSH2 0x544 CALLDATALOAD PUSH2 0x152B JUMP JUMPDEST PUSH2 0x1C00 PUSH2 0x564 CALLDATALOAD PUSH2 0x15B5 JUMP JUMPDEST PUSH2 0x1C0C PUSH2 0x584 CALLDATALOAD PUSH2 0x163F JUMP JUMPDEST PUSH2 0x1C18 PUSH2 0x5A4 CALLDATALOAD PUSH2 0x16C9 JUMP JUMPDEST PUSH2 0x1C24 PUSH2 0x5C4 CALLDATALOAD PUSH2 0x1753 JUMP JUMPDEST PUSH2 0x1C30 PUSH2 0x5E4 CALLDATALOAD PUSH2 0x17DD JUMP JUMPDEST PUSH2 0x1C3C PUSH2 0x604 CALLDATALOAD PUSH2 0x1867 JUMP JUMPDEST PUSH2 0x1C48 PUSH2 0x624 CALLDATALOAD PUSH2 0x18F1 JUMP JUMPDEST PUSH2 0x1C54 PUSH2 0x644 CALLDATALOAD PUSH2 0x197B JUMP JUMPDEST PUSH2 0x100 SWAP3 DUP2 DUP5 SWAP3 CALLDATALOAD DUP4 MSTORE DUP4 PUSH32 0x30644E72E131A029B85045B68181585D97816A916871CA8D3C208C16D87CFD47 SWAP2 ADD CALLDATALOAD DUP2 SUB MOD PUSH2 0x120 MSTORE PUSH1 0x44 CALLDATALOAD PUSH2 0x140 MSTORE PUSH1 0x64 CALLDATALOAD PUSH2 0x160 MSTORE PUSH1 0x84 CALLDATALOAD PUSH2 0x180 MSTORE PUSH1 0xA4 CALLDATALOAD PUSH2 0x1A0 MSTORE PUSH32 0xDF8C8D0EE78C320F78505C326F2DAAD5396B2B970888FFFF4B6BA24EBA25D3B PUSH2 0x1C0 MSTORE PUSH32 0x45186D313FBE0B78EF12A0DA0BA0A9ACC5C86FEC553827DD8B9AE9AD137C14E PUSH2 0x1E0 MSTORE PUSH32 0x2CFF275D7472B1D88A9A99479457E409AD26C0ACF7B442A66290DD9919A293BD PUSH2 0x200 MSTORE PUSH32 0x85832893CA6B9CFCA1312A14BEC6119A8067340E129D181D32A6D369415C800 PUSH2 0x220 MSTORE PUSH32 0x28DD32FB648C2A82B219A38CF038EF57503FDF03B91F8378AD53D9644AD8D5A6 PUSH2 0x240 MSTORE PUSH32 0x140CDFB185C8A4881B0E66CE6235B519013C341D9A75500BEFCD32E3EAD72BF3 PUSH2 0x260 MSTORE PUSH1 0x80 MLOAD PUSH2 0x280 MSTORE PUSH1 0xA0 MLOAD PUSH2 0x2A0 MSTORE PUSH32 0x198E9393920D483A7260BFB731FB5D25F1AA493335A9E71297E485B7AEF312C2 PUSH2 0x2C0 MSTORE PUSH32 0x1800DEEF121F1E76426A00665E5C4479674322D4F75EDADD46DEBD5CD992F6ED PUSH2 0x2E0 MSTORE DUP3 PUSH2 0x300 SWAP2 PUSH32 0x90689D0585FF075EC9E99AD690C3395BC4B313370B38EF355ACDADCD122975B DUP4 MSTORE PUSH32 0x12C85EA5DB8C6DEB4AAB71808DCB408FE3D1E7690C43D37B4CE6CC0166FA7DAA PUSH2 0x320 MSTORE DUP1 CALLDATALOAD PUSH2 0x340 MSTORE ADD CALLDATALOAD PUSH2 0x360 MSTORE PUSH32 0x1DE32D6B8AC92F0AEE3E57657DE0920233300C926E9B149114FF45F1A5377223 PUSH2 0x380 MSTORE PUSH32 0x14E6A8F899AFE5BFD6AB54B1377A3A2E69D371F9AC40FE7295F7C70D0CADEACF PUSH2 0x3A0 MSTORE PUSH32 0xB19BBABA17F5B7F4A4EFDCEC05DEB972E542225E6B0D22D7396F91D5B80A31D PUSH2 0x3C0 MSTORE PUSH32 0x2D53848BF5801A19AE6D30CE4C550F0C18C0F259B8B8E18904DA98A20BFBED66 PUSH2 0x3E0 MSTORE DUP2 PUSH1 0x8 PUSH2 0x7CF NOT GAS ADD STATICCALL SWAP1 MLOAD AND SWAP1 JUMP INVALID LOG2 PUSH5 0x6970667358 0x22 SLT KECCAK256 MOD PUSH20 0xE4B79AB3A0939A1F0F67AD63F7F7A5544EC0F012 CREATE2 0xD1 CALLDATACOPY 0x1E PUSH18 0x3F9A064E6364736F6C634300081800330000 "},"methodIdentifiers":{"verifyProof(uint256[2],uint256[2][2],uint256[2],uint256[43])":"5547bd38"}}}}}